{"abi":[{"type":"constructor","inputs":[{"name":"name","type":"string","internalType":"string"},{"name":"symbol","type":"string","internalType":"string"},{"name":"initialAccount","type":"address","internalType":"address"},{"name":"initialBalance","type":"uint256","internalType":"uint256"}],"stateMutability":"payable"},{"type":"function","name":"allowance","inputs":[{"name":"owner","type":"address","internalType":"address"},{"name":"spender","type":"address","internalType":"address"}],"outputs":[{"name":"","type":"uint256","internalType":"uint256"}],"stateMutability":"view"},{"type":"function","name":"approve","inputs":[{"name":"spender","type":"address","internalType":"address"},{"name":"amount","type":"uint256","internalType":"uint256"}],"outputs":[{"name":"","type":"bool","internalType":"bool"}],"stateMutability":"nonpayable"},{"type":"function","name":"approveInternal","inputs":[{"name":"owner","type":"address","internalType":"address"},{"name":"spender","type":"address","internalType":"address"},{"name":"value","type":"uint256","internalType":"uint256"}],"outputs":[],"stateMutability":"nonpayable"},{"type":"function","name":"balanceOf","inputs":[{"name":"account","type":"address","internalType":"address"}],"outputs":[{"name":"","type":"uint256","internalType":"uint256"}],"stateMutability":"view"},{"type":"function","name":"burn","inputs":[{"name":"account","type":"address","internalType":"address"},{"name":"amount","type":"uint256","internalType":"uint256"}],"outputs":[],"stateMutability":"nonpayable"},{"type":"function","name":"decimals","inputs":[],"outputs":[{"name":"","type":"uint8","internalType":"uint8"}],"stateMutability":"view"},{"type":"function","name":"decreaseAllowance","inputs":[{"name":"spender","type":"address","internalType":"address"},{"name":"subtractedValue","type":"uint256","internalType":"uint256"}],"outputs":[{"name":"","type":"bool","internalType":"bool"}],"stateMutability":"nonpayable"},{"type":"function","name":"increaseAllowance","inputs":[{"name":"spender","type":"address","internalType":"address"},{"name":"addedValue","type":"uint256","internalType":"uint256"}],"outputs":[{"name":"","type":"bool","internalType":"bool"}],"stateMutability":"nonpayable"},{"type":"function","name":"mint","inputs":[{"name":"account","type":"address","internalType":"address"},{"name":"amount","type":"uint256","internalType":"uint256"}],"outputs":[],"stateMutability":"nonpayable"},{"type":"function","name":"name","inputs":[],"outputs":[{"name":"","type":"string","internalType":"string"}],"stateMutability":"view"},{"type":"function","name":"symbol","inputs":[],"outputs":[{"name":"","type":"string","internalType":"string"}],"stateMutability":"view"},{"type":"function","name":"totalSupply","inputs":[],"outputs":[{"name":"","type":"uint256","internalType":"uint256"}],"stateMutability":"view"},{"type":"function","name":"transfer","inputs":[{"name":"to","type":"address","internalType":"address"},{"name":"amount","type":"uint256","internalType":"uint256"}],"outputs":[{"name":"","type":"bool","internalType":"bool"}],"stateMutability":"nonpayable"},{"type":"function","name":"transferFrom","inputs":[{"name":"from","type":"address","internalType":"address"},{"name":"to","type":"address","internalType":"address"},{"name":"amount","type":"uint256","internalType":"uint256"}],"outputs":[{"name":"","type":"bool","internalType":"bool"}],"stateMutability":"nonpayable"},{"type":"function","name":"transferInternal","inputs":[{"name":"from","type":"address","internalType":"address"},{"name":"to","type":"address","internalType":"address"},{"name":"value","type":"uint256","internalType":"uint256"}],"outputs":[],"stateMutability":"nonpayable"},{"type":"event","name":"Approval","inputs":[{"name":"owner","type":"address","indexed":true,"internalType":"address"},{"name":"spender","type":"address","indexed":true,"internalType":"address"},{"name":"value","type":"uint256","indexed":false,"internalType":"uint256"}],"anonymous":false},{"type":"event","name":"Transfer","inputs":[{"name":"from","type":"address","indexed":true,"internalType":"address"},{"name":"to","type":"address","indexed":true,"internalType":"address"},{"name":"value","type":"uint256","indexed":false,"internalType":"uint256"}],"anonymous":false}],"bytecode":{"object":"0x608060405260405161208a38038061208a833981810160405281019061002591906103a9565b83838160039081610036919061064c565b508060049081610046919061064c565b505050610059828261006260201b60201c565b5050505061081b565b5f73ffffffffffffffffffffffffffffffffffffffff168273ffffffffffffffffffffffffffffffffffffffff16036100d0576040517f08c379a00000000000000000000000000000000000000000000000000000000081526004016100c790610775565b60405180910390fd5b6100e15f83836101c560201b60201c565b8060025f8282546100f291906107c0565b92505081905550805f5f8473ffffffffffffffffffffffffffffffffffffffff1673ffffffffffffffffffffffffffffffffffffffff1681526020019081526020015f205f82825461014491906107c0565b925050819055508173ffffffffffffffffffffffffffffffffffffffff165f73ffffffffffffffffffffffffffffffffffffffff167fddf252ad1be2c89b69c2b068fc378daa952ba7f163c4a11628f55a4df523b3ef836040516101a89190610802565b60405180910390a36101c15f83836101ca60201b60201c565b5050565b505050565b505050565b5f604051905090565b5f5ffd5b5f5ffd5b5f5ffd5b5f5ffd5b5f601f19601f8301169050919050565b7f4e487b71000000000000000000000000000000000000000000000000000000005f52604160045260245ffd5b61022e826101e8565b810181811067ffffffffffffffff8211171561024d5761024c6101f8565b5b80604052505050565b5f61025f6101cf565b905061026b8282610225565b919050565b5f67ffffffffffffffff82111561028a576102896101f8565b5b610293826101e8565b9050602081019050919050565b8281835e5f83830152505050565b5f6102c06102bb84610270565b610256565b9050828152602081018484840111156102dc576102db6101e4565b5b6102e78482856102a0565b509392505050565b5f82601f830112610303576103026101e0565b5b81516103138482602086016102ae565b91505092915050565b5f73ffffffffffffffffffffffffffffffffffffffff82169050919050565b5f6103458261031c565b9050919050565b6103558161033b565b811461035f575f5ffd5b50565b5f815190506103708161034c565b92915050565b5f819050919050565b61038881610376565b8114610392575f5ffd5b50565b5f815190506103a38161037f565b92915050565b5f5f5f5f608085870312156103c1576103c06101d8565b5b5f85015167ffffffffffffffff8111156103de576103dd6101dc565b5b6103ea878288016102ef565b945050602085015167ffffffffffffffff81111561040b5761040a6101dc565b5b610417878288016102ef565b935050604061042887828801610362565b925050606061043987828801610395565b91505092959194509250565b5f81519050919050565b7f4e487b71000000000000000000000000000000000000000000000000000000005f52602260045260245ffd5b5f600282049050600182168061049357607f821691505b6020821081036104a6576104a561044f565b5b50919050565b5f819050815f5260205f209050919050565b5f6020601f8301049050919050565b5f82821b905092915050565b5f600883026105087fffffffffffffffffffffffffffffffffffffffffffffffffffffffffffffffff826104cd565b61051286836104cd565b95508019841693508086168417925050509392505050565b5f819050919050565b5f61054d61054861054384610376565b61052a565b610376565b9050919050565b5f819050919050565b61056683610533565b61057a61057282610554565b8484546104d9565b825550505050565b5f5f905090565b610591610582565b61059c81848461055d565b505050565b5b818110156105bf576105b45f82610589565b6001810190506105a2565b5050565b601f821115610604576105d5816104ac565b6105de846104be565b810160208510156105ed578190505b6106016105f9856104be565b8301826105a1565b50505b505050565b5f82821c905092915050565b5f6106245f1984600802610609565b1980831691505092915050565b5f61063c8383610615565b9150826002028217905092915050565b61065582610445565b67ffffffffffffffff81111561066e5761066d6101f8565b5b610678825461047c565b6106838282856105c3565b5f60209050601f8311600181146106b4575f84156106a2578287015190505b6106ac8582610631565b865550610713565b601f1984166106c2866104ac565b5f5b828110156106e9578489015182556001820191506020850194506020810190506106c4565b868310156107065784890151610702601f891682610615565b8355505b6001600288020188555050505b505050505050565b5f82825260208201905092915050565b7f45524332303a206d696e7420746f20746865207a65726f2061646472657373005f82015250565b5f61075f601f8361071b565b915061076a8261072b565b602082019050919050565b5f6020820190508181035f83015261078c81610753565b9050919050565b7f4e487b71000000000000000000000000000000000000000000000000000000005f52601160045260245ffd5b5f6107ca82610376565b91506107d583610376565b92508282019050808211156107ed576107ec610793565b5b92915050565b6107fc81610376565b82525050565b5f6020820190506108155f8301846107f3565b92915050565b611862806108285f395ff3fe608060405234801561000f575f5ffd5b50600436106100f3575f3560e01c806340c10f19116100955780639dc29fac116100645780639dc29fac14610283578063a457c2d71461029f578063a9059cbb146102cf578063dd62ed3e146102ff576100f3565b806340c10f19146101fd57806356189cb41461021957806370a082311461023557806395d89b4114610265576100f3565b8063222f5be0116100d1578063222f5be01461016357806323b872dd1461017f578063313ce567146101af57806339509351146101cd576100f3565b806306fdde03146100f7578063095ea7b31461011557806318160ddd14610145575b5f5ffd5b6100ff61032f565b60405161010c9190610fc5565b60405180910390f35b61012f600480360381019061012a9190611076565b6103bf565b60405161013c91906110ce565b60405180910390f35b61014d6103e1565b60405161015a91906110f6565b60405180910390f35b61017d6004803603810190610178919061110f565b6103ea565b005b6101996004803603810190610194919061110f565b6103fa565b6040516101a691906110ce565b60405180910390f35b6101b7610428565b6040516101c4919061117a565b60405180910390f35b6101e760048036038101906101e29190611076565b610430565b6040516101f491906110ce565b60405180910390f35b61021760048036038101906102129190611076565b6104d5565b005b610233600480360381019061022e919061110f565b6104e3565b005b61024f600480360381019061024a9190611193565b6104f3565b60405161025c91906110f6565b60405180910390f35b61026d610538565b60405161027a9190610fc5565b60405180910390f35b61029d60048036038101906102989190611076565b6105c8565b005b6102b960048036038101906102b49190611076565b6105d6565b6040516102c691906110ce565b60405180910390f35b6102e960048036038101906102e49190611076565b6106ba565b6040516102f691906110ce565b60405180910390f35b610319600480360381019061031491906111be565b6106dc565b60405161032691906110f6565b60405180910390f35b60606003805461033e90611229565b80601f016020809104026020016040519081016040528092919081815260200182805461036a90611229565b80156103b55780601f1061038c576101008083540402835291602001916103b5565b820191905f5260205f20905b81548152906001019060200180831161039857829003601f168201915b5050505050905090565b5f5f6103c961075e565b90506103d6818585610765565b600191505092915050565b5f600254905090565b6103f5838383610928565b505050565b5f5f61040461075e565b9050610411858285610b9d565b61041c858585610928565b60019150509392505050565b5f6012905090565b5f5f61043a61075e565b90506104ca81858560015f8673ffffffffffffffffffffffffffffffffffffffff1673ffffffffffffffffffffffffffffffffffffffff1681526020019081526020015f205f8973ffffffffffffffffffffffffffffffffffffffff1673ffffffffffffffffffffffffffffffffffffffff1681526020019081526020015f20546104c59190611286565b610765565b600191505092915050565b6104df8282610c28565b5050565b6104ee838383610765565b505050565b5f5f5f8373ffffffffffffffffffffffffffffffffffffffff1673ffffffffffffffffffffffffffffffffffffffff1681526020019081526020015f20549050919050565b60606004805461054790611229565b80601f016020809104026020016040519081016040528092919081815260200182805461057390611229565b80156105be5780601f10610595576101008083540402835291602001916105be565b820191905f5260205f20905b8154815290600101906020018083116105a157829003601f168201915b5050505050905090565b6105d28282610d7f565b5050565b5f5f6105e061075e565b90505f60015f8373ffffffffffffffffffffffffffffffffffffffff1673ffffffffffffffffffffffffffffffffffffffff1681526020019081526020015f205f8673ffffffffffffffffffffffffffffffffffffffff1673ffffffffffffffffffffffffffffffffffffffff1681526020019081526020015f20549050838110156106a1576040517f08c379a000000000000000000000000000000000000000000000000000000000815260040161069890611329565b60405180910390fd5b6106ae8286868403610765565b60019250505092915050565b5f5f6106c461075e565b90506106d1818585610928565b600191505092915050565b5f60015f8473ffffffffffffffffffffffffffffffffffffffff1673ffffffffffffffffffffffffffffffffffffffff1681526020019081526020015f205f8373ffffffffffffffffffffffffffffffffffffffff1673ffffffffffffffffffffffffffffffffffffffff1681526020019081526020015f2054905092915050565b5f33905090565b5f73ffffffffffffffffffffffffffffffffffffffff168373ffffffffffffffffffffffffffffffffffffffff16036107d3576040517f08c379a00000000000000000000000000000000000000000000000000000000081526004016107ca906113b7565b60405180910390fd5b5f73ffffffffffffffffffffffffffffffffffffffff168273ffffffffffffffffffffffffffffffffffffffff1603610841576040517f08c379a000000000000000000000000000000000000000000000000000000000815260040161083890611445565b60405180910390fd5b8060015f8573ffffffffffffffffffffffffffffffffffffffff1673ffffffffffffffffffffffffffffffffffffffff1681526020019081526020015f205f8473ffffffffffffffffffffffffffffffffffffffff1673ffffffffffffffffffffffffffffffffffffffff1681526020019081526020015f20819055508173ffffffffffffffffffffffffffffffffffffffff168373ffffffffffffffffffffffffffffffffffffffff167f8c5be1e5ebec7d5bd14f71427d1e84f3dd0314c0f7b2291e5b200ac8c7c3b9258360405161091b91906110f6565b60405180910390a3505050565b5f73ffffffffffffffffffffffffffffffffffffffff168373ffffffffffffffffffffffffffffffffffffffff1603610996576040517f08c379a000000000000000000000000000000000000000000000000000000000815260040161098d906114d3565b60405180910390fd5b5f73ffffffffffffffffffffffffffffffffffffffff168273ffffffffffffffffffffffffffffffffffffffff1603610a04576040517f08c379a00000000000000000000000000000000000000000000000000000000081526004016109fb90611561565b60405180910390fd5b610a0f838383610f4b565b5f5f5f8573ffffffffffffffffffffffffffffffffffffffff1673ffffffffffffffffffffffffffffffffffffffff1681526020019081526020015f2054905081811015610a92576040517f08c379a0000000000000000000000000000000000000000000000000000000008152600401610a89906115ef565b60405180910390fd5b8181035f5f8673ffffffffffffffffffffffffffffffffffffffff1673ffffffffffffffffffffffffffffffffffffffff1681526020019081526020015f2081905550815f5f8573ffffffffffffffffffffffffffffffffffffffff1673ffffffffffffffffffffffffffffffffffffffff1681526020019081526020015f205f828254610b209190611286565b925050819055508273ffffffffffffffffffffffffffffffffffffffff168473ffffffffffffffffffffffffffffffffffffffff167fddf252ad1be2c89b69c2b068fc378daa952ba7f163c4a11628f55a4df523b3ef84604051610b8491906110f6565b60405180910390a3610b97848484610f50565b50505050565b5f610ba884846106dc565b90507fffffffffffffffffffffffffffffffffffffffffffffffffffffffffffffffff8114610c225781811015610c14576040517f08c379a0000000000000000000000000000000000000000000000000000000008152600401610c0b90611657565b60405180910390fd5b610c218484848403610765565b5b50505050565b5f73ffffffffffffffffffffffffffffffffffffffff168273ffffffffffffffffffffffffffffffffffffffff1603610c96576040517f08c379a0000000000000000000000000000000000000000000000000000000008152600401610c8d906116bf565b60405180910390fd5b610ca15f8383610f4b565b8060025f828254610cb29190611286565b92505081905550805f5f8473ffffffffffffffffffffffffffffffffffffffff1673ffffffffffffffffffffffffffffffffffffffff1681526020019081526020015f205f828254610d049190611286565b925050819055508173ffffffffffffffffffffffffffffffffffffffff165f73ffffffffffffffffffffffffffffffffffffffff167fddf252ad1be2c89b69c2b068fc378daa952ba7f163c4a11628f55a4df523b3ef83604051610d6891906110f6565b60405180910390a3610d7b5f8383610f50565b5050565b5f73ffffffffffffffffffffffffffffffffffffffff168273ffffffffffffffffffffffffffffffffffffffff1603610ded576040517f08c379a0000000000000000000000000000000000000000000000000000000008152600401610de49061174d565b60405180910390fd5b610df8825f83610f4b565b5f5f5f8473ffffffffffffffffffffffffffffffffffffffff1673ffffffffffffffffffffffffffffffffffffffff1681526020019081526020015f2054905081811015610e7b576040517f08c379a0000000000000000000000000000000000000000000000000000000008152600401610e72906117db565b60405180910390fd5b8181035f5f8573ffffffffffffffffffffffffffffffffffffffff1673ffffffffffffffffffffffffffffffffffffffff1681526020019081526020015f20819055508160025f828254610ecf91906117f9565b925050819055505f73ffffffffffffffffffffffffffffffffffffffff168373ffffffffffffffffffffffffffffffffffffffff167fddf252ad1be2c89b69c2b068fc378daa952ba7f163c4a11628f55a4df523b3ef84604051610f3391906110f6565b60405180910390a3610f46835f84610f50565b505050565b505050565b505050565b5f81519050919050565b5f82825260208201905092915050565b8281835e5f83830152505050565b5f601f19601f8301169050919050565b5f610f9782610f55565b610fa18185610f5f565b9350610fb1818560208601610f6f565b610fba81610f7d565b840191505092915050565b5f6020820190508181035f830152610fdd8184610f8d565b905092915050565b5f5ffd5b5f73ffffffffffffffffffffffffffffffffffffffff82169050919050565b5f61101282610fe9565b9050919050565b61102281611008565b811461102c575f5ffd5b50565b5f8135905061103d81611019565b92915050565b5f819050919050565b61105581611043565b811461105f575f5ffd5b50565b5f813590506110708161104c565b92915050565b5f5f6040838503121561108c5761108b610fe5565b5b5f6110998582860161102f565b92505060206110aa85828601611062565b9150509250929050565b5f8115159050919050565b6110c8816110b4565b82525050565b5f6020820190506110e15f8301846110bf565b92915050565b6110f081611043565b82525050565b5f6020820190506111095f8301846110e7565b92915050565b5f5f5f6060848603121561112657611125610fe5565b5b5f6111338682870161102f565b93505060206111448682870161102f565b925050604061115586828701611062565b9150509250925092565b5f60ff82169050919050565b6111748161115f565b82525050565b5f60208201905061118d5f83018461116b565b92915050565b5f602082840312156111a8576111a7610fe5565b5b5f6111b58482850161102f565b91505092915050565b5f5f604083850312156111d4576111d3610fe5565b5b5f6111e18582860161102f565b92505060206111f28582860161102f565b9150509250929050565b7f4e487b71000000000000000000000000000000000000000000000000000000005f52602260045260245ffd5b5f600282049050600182168061124057607f821691505b602082108103611253576112526111fc565b5b50919050565b7f4e487b71000000000000000000000000000000000000000000000000000000005f52601160045260245ffd5b5f61129082611043565b915061129b83611043565b92508282019050808211156112b3576112b2611259565b5b92915050565b7f45524332303a2064656372656173656420616c6c6f77616e63652062656c6f775f8201527f207a65726f000000000000000000000000000000000000000000000000000000602082015250565b5f611313602583610f5f565b915061131e826112b9565b604082019050919050565b5f6020820190508181035f83015261134081611307565b9050919050565b7f45524332303a20617070726f76652066726f6d20746865207a65726f206164645f8201527f7265737300000000000000000000000000000000000000000000000000000000602082015250565b5f6113a1602483610f5f565b91506113ac82611347565b604082019050919050565b5f6020820190508181035f8301526113ce81611395565b9050919050565b7f45524332303a20617070726f766520746f20746865207a65726f2061646472655f8201527f7373000000000000000000000000000000000000000000000000000000000000602082015250565b5f61142f602283610f5f565b915061143a826113d5565b604082019050919050565b5f6020820190508181035f83015261145c81611423565b9050919050565b7f45524332303a207472616e736665722066726f6d20746865207a65726f2061645f8201527f6472657373000000000000000000000000000000000000000000000000000000602082015250565b5f6114bd602583610f5f565b91506114c882611463565b604082019050919050565b5f6020820190508181035f8301526114ea816114b1565b9050919050565b7f45524332303a207472616e7366657220746f20746865207a65726f20616464725f8201527f6573730000000000000000000000000000000000000000000000000000000000602082015250565b5f61154b602383610f5f565b9150611556826114f1565b604082019050919050565b5f6020820190508181035f8301526115788161153f565b9050919050565b7f45524332303a207472616e7366657220616d6f756e74206578636565647320625f8201527f616c616e63650000000000000000000000000000000000000000000000000000602082015250565b5f6115d9602683610f5f565b91506115e48261157f565b604082019050919050565b5f6020820190508181035f830152611606816115cd565b9050919050565b7f45524332303a20696e73756666696369656e7420616c6c6f77616e63650000005f82015250565b5f611641601d83610f5f565b915061164c8261160d565b602082019050919050565b5f6020820190508181035f83015261166e81611635565b9050919050565b7f45524332303a206d696e7420746f20746865207a65726f2061646472657373005f82015250565b5f6116a9601f83610f5f565b91506116b482611675565b602082019050919050565b5f6020820190508181035f8301526116d68161169d565b9050919050565b7f45524332303a206275726e2066726f6d20746865207a65726f206164647265735f8201527f7300000000000000000000000000000000000000000000000000000000000000602082015250565b5f611737602183610f5f565b9150611742826116dd565b604082019050919050565b5f6020820190508181035f8301526117648161172b565b9050919050565b7f45524332303a206275726e20616d6f756e7420657863656564732062616c616e5f8201527f6365000000000000000000000000000000000000000000000000000000000000602082015250565b5f6117c5602283610f5f565b91506117d08261176b565b604082019050919050565b5f6020820190508181035f8301526117f2816117b9565b9050919050565b5f61180382611043565b915061180e83611043565b925082820390508181111561182657611825611259565b5b9291505056fea2646970667358221220f13935a58346e37953683b54a19f334820e3827432dc885de1cd96209a29c2e764736f6c634300081e0033","linkReferences":{}},"methodIdentifiers":{"allowance(address,address)":"dd62ed3e","approve(address,uint256)":"095ea7b3","approveInternal(address,address,uint256)":"56189cb4","balanceOf(address)":"70a08231","burn(address,uint256)":"9dc29fac","decimals()":"313ce567","decreaseAllowance(address,uint256)":"a457c2d7","increaseAllowance(address,uint256)":"39509351","mint(address,uint256)":"40c10f19","name()":"06fdde03","symbol()":"95d89b41","totalSupply()":"18160ddd","transfer(address,uint256)":"a9059cbb","transferFrom(address,address,uint256)":"23b872dd","transferInternal(address,address,uint256)":"222f5be0"},"id":22}