{"abi":[{"type":"constructor","inputs":[{"name":"_tokenAdresses","type":"address[]","internalType":"address[]"},{"name":"_priceFeedAddesses","type":"address[]","internalType":"address[]"},{"name":"dscAddress","type":"address","internalType":"address"}],"stateMutability":"nonpayable"},{"type":"function","name":"burnDsc","inputs":[{"name":"_amount","type":"uint256","internalType":"uint256"}],"outputs":[],"stateMutability":"nonpayable"},{"type":"function","name":"depositCollateral","inputs":[{"name":"_tokenCollateralAddress","type":"address","internalType":"address"},{"name":"_amountCollateral","type":"uint256","internalType":"uint256"}],"outputs":[],"stateMutability":"nonpayable"},{"type":"function","name":"depositCollateralAndMintDsc","inputs":[],"outputs":[],"stateMutability":"nonpayable"},{"type":"function","name":"depositCollateralAndMintDsc","inputs":[{"name":"_tokenCollateralAddress","type":"address","internalType":"address"},{"name":"_amountCollateral","type":"uint256","internalType":"uint256"},{"name":"_amountDscToMint","type":"uint256","internalType":"uint256"}],"outputs":[],"stateMutability":"nonpayable"},{"type":"function","name":"getAccountCollateralValue","inputs":[{"name":"_user","type":"address","internalType":"address"}],"outputs":[{"name":"totalCollateralValueInUsd","type":"uint256","internalType":"uint256"}],"stateMutability":"view"},{"type":"function","name":"getAccountInformation","inputs":[{"name":"_user","type":"address","internalType":"address"}],"outputs":[{"name":"totalDscMinted","type":"uint256","internalType":"uint256"},{"name":"collateralValueInUsd","type":"uint256","internalType":"uint256"}],"stateMutability":"view"},{"type":"function","name":"getAdditionalFeedPrecision","inputs":[],"outputs":[{"name":"","type":"uint256","internalType":"uint256"}],"stateMutability":"pure"},{"type":"function","name":"getCollateralBalanceOfUser","inputs":[{"name":"_user","type":"address","internalType":"address"},{"name":"_token","type":"address","internalType":"address"}],"outputs":[{"name":"","type":"uint256","internalType":"uint256"}],"stateMutability":"view"},{"type":"function","name":"getCollateralTokenPriceFeed","inputs":[{"name":"token","type":"address","internalType":"address"}],"outputs":[{"name":"","type":"address","internalType":"address"}],"stateMutability":"view"},{"type":"function","name":"getCollateralTokens","inputs":[],"outputs":[{"name":"","type":"address[]","internalType":"address[]"}],"stateMutability":"view"},{"type":"function","name":"getDsc","inputs":[],"outputs":[{"name":"","type":"address","internalType":"address"}],"stateMutability":"view"},{"type":"function","name":"getHealthFactor","inputs":[],"outputs":[],"stateMutability":"view"},{"type":"function","name":"getHealthFactor","inputs":[{"name":"user","type":"address","internalType":"address"}],"outputs":[{"name":"","type":"uint256","internalType":"uint256"}],"stateMutability":"view"},{"type":"function","name":"getLiquidationBonus","inputs":[],"outputs":[{"name":"","type":"uint256","internalType":"uint256"}],"stateMutability":"pure"},{"type":"function","name":"getLiquidationPrecision","inputs":[],"outputs":[{"name":"","type":"uint256","internalType":"uint256"}],"stateMutability":"pure"},{"type":"function","name":"getLiquidationThreshold","inputs":[],"outputs":[{"name":"","type":"uint256","internalType":"uint256"}],"stateMutability":"pure"},{"type":"function","name":"getMinHealthFactor","inputs":[],"outputs":[{"name":"","type":"uint256","internalType":"uint256"}],"stateMutability":"pure"},{"type":"function","name":"getPrecision","inputs":[],"outputs":[{"name":"","type":"uint256","internalType":"uint256"}],"stateMutability":"pure"},{"type":"function","name":"getTokenAmountFromUsd","inputs":[{"name":"_token","type":"address","internalType":"address"},{"name":"_usdAmountInWei","type":"uint256","internalType":"uint256"}],"outputs":[{"name":"","type":"uint256","internalType":"uint256"}],"stateMutability":"view"},{"type":"function","name":"getUsdValue","inputs":[{"name":"_token","type":"address","internalType":"address"},{"name":"_amount","type":"uint256","internalType":"uint256"}],"outputs":[{"name":"","type":"uint256","internalType":"uint256"}],"stateMutability":"view"},{"type":"function","name":"liquidate","inputs":[{"name":"_collateral","type":"address","internalType":"address"},{"name":"_user","type":"address","internalType":"address"},{"name":"_debtToCover","type":"uint256","internalType":"uint256"}],"outputs":[],"stateMutability":"nonpayable"},{"type":"function","name":"mintDsc","inputs":[{"name":"_amountDscToMint","type":"uint256","internalType":"uint256"}],"outputs":[],"stateMutability":"nonpayable"},{"type":"function","name":"redeemCollateral","inputs":[{"name":"_tokenCollateralAddress","type":"address","internalType":"address"},{"name":"_amountCollateral","type":"uint256","internalType":"uint256"}],"outputs":[],"stateMutability":"nonpayable"},{"type":"function","name":"redeemCollateralForDsc","inputs":[{"name":"_tokenCollateralAddress","type":"address","internalType":"address"},{"name":"_amountCollateral","type":"uint256","internalType":"uint256"},{"name":"_amountDscToBurn","type":"uint256","internalType":"uint256"}],"outputs":[],"stateMutability":"nonpayable"},{"type":"event","name":"DSCEngine__CollateralDeposited","inputs":[{"name":"user","type":"address","indexed":true,"internalType":"address"},{"name":"token","type":"address","indexed":true,"internalType":"address"},{"name":"amount","type":"uint256","indexed":false,"internalType":"uint256"}],"anonymous":false},{"type":"event","name":"DSCEngine__CollateralRedeemed","inputs":[{"name":"redeemedFrom","type":"address","indexed":true,"internalType":"address"},{"name":"redeemedTo","type":"address","indexed":true,"internalType":"address"},{"name":"token","type":"address","indexed":true,"internalType":"address"},{"name":"amount","type":"uint256","indexed":false,"internalType":"uint256"}],"anonymous":false},{"type":"error","name":"DSCEngine__BreaksHealthFactor","inputs":[{"name":"healthFactor","type":"uint256","internalType":"uint256"}]},{"type":"error","name":"DSCEngine__HealthFactorNotImproved","inputs":[]},{"type":"error","name":"DSCEngine__HealthFactorOk","inputs":[]},{"type":"error","name":"DSCEngine__MintFailed","inputs":[]},{"type":"error","name":"DSCEngine__NeedsMoreThanZero","inputs":[]},{"type":"error","name":"DSCEngine__NotAllowedToken","inputs":[]},{"type":"error","name":"DSCEngine__TokenAddressesAndPriceFeedAddressesMustBeSameLength","inputs":[]},{"type":"error","name":"DSCEngine__TransferFailed","inputs":[]}],"bytecode":{"object":"0x60a060405234801561000f575f5ffd5b506040516121f73803806121f7833981810160405281019061003191906103b4565b60015f819055508151835114610073576040517fb5c5c12600000000000000000000000000000000000000000000000000000000815260040160405180910390fd5b5f835190505f5f90505b818110156101bb578381815181106100985761009761043c565b5b602002602001015160015f8784815181106100b6576100b561043c565b5b602002602001015173ffffffffffffffffffffffffffffffffffffffff1673ffffffffffffffffffffffffffffffffffffffff1681526020019081526020015f205f6101000a81548173ffffffffffffffffffffffffffffffffffffffff021916908373ffffffffffffffffffffffffffffffffffffffff16021790555060048582815181106101495761014861043c565b5b6020026020010151908060018154018082558091505060019003905f5260205f20015f9091909190916101000a81548173ffffffffffffffffffffffffffffffffffffffff021916908373ffffffffffffffffffffffffffffffffffffffff160217905550808060010191505061007d565b508173ffffffffffffffffffffffffffffffffffffffff1660808173ffffffffffffffffffffffffffffffffffffffff168152505050505050610469565b5f604051905090565b5f5ffd5b5f5ffd5b5f5ffd5b5f601f19601f8301169050919050565b7f4e487b71000000000000000000000000000000000000000000000000000000005f52604160045260245ffd5b6102548261020e565b810181811067ffffffffffffffff821117156102735761027261021e565b5b80604052505050565b5f6102856101f9565b9050610291828261024b565b919050565b5f67ffffffffffffffff8211156102b0576102af61021e565b5b602082029050602081019050919050565b5f5ffd5b5f73ffffffffffffffffffffffffffffffffffffffff82169050919050565b5f6102ee826102c5565b9050919050565b6102fe816102e4565b8114610308575f5ffd5b50565b5f81519050610319816102f5565b92915050565b5f61033161032c84610296565b61027c565b90508083825260208201905060208402830185811115610354576103536102c1565b5b835b8181101561037d5780610369888261030b565b845260208401935050602081019050610356565b5050509392505050565b5f82601f83011261039b5761039a61020a565b5b81516103ab84826020860161031f565b91505092915050565b5f5f5f606084860312156103cb576103ca610202565b5b5f84015167ffffffffffffffff8111156103e8576103e7610206565b5b6103f486828701610387565b935050602084015167ffffffffffffffff81111561041557610414610206565b5b61042186828701610387565b92505060406104328682870161030b565b9150509250925092565b7f4e487b71000000000000000000000000000000000000000000000000000000005f52603260045260245ffd5b608051611d616104965f395f8181610f7c0152818161105d0152818161135301526114290152611d615ff3fe608060405234801561000f575f5ffd5b5060043610610156575f3560e01c80639acd81b3116100c1578063c9b7c3271161007a578063c9b7c327146103b5578063deb8e018146103d1578063e90db8a3146103ef578063f419ea9c1461040b578063f687660814610427578063fe6bcd7c1461044357610156565b80639acd81b3146102f5578063a5d5db0c14610311578063a5f352b71461032d578063afea2e4814610337578063b58eb63f14610367578063c660d1121461038557610156565b80636c8102c0116101135780636c8102c01461021c5780637be564fc1461023a5780637d1a44501461026b5780638c1ae6c81461029b5780638f63d667146102b95780639670c0bc146102d757610156565b80631c08adda1461015a5780631e2e15e41461018a57806326c013031461019457806331e92b83146101b05780634ae9b8bc146101e057806359aa9e72146101fe575b5f5ffd5b610174600480360381019061016f9190611635565b610473565b604051610181919061166f565b60405180910390f35b6101926104d8565b005b6101ae60048036038101906101a991906116bb565b6104da565b005b6101ca60048036038101906101c5919061170b565b61065b565b6040516101d79190611758565b60405180910390f35b6101e86106dd565b6040516101f59190611758565b60405180910390f35b6102066106e5565b6040516102139190611758565b60405180910390f35b6102246106ed565b6040516102319190611758565b60405180910390f35b610254600480360381019061024f9190611635565b6106f5565b604051610262929190611771565b60405180910390f35b61028560048036038101906102809190611635565b61070d565b6040516102929190611758565b60405180910390f35b6102a361080c565b6040516102b09190611758565b60405180910390f35b6102c161081b565b6040516102ce9190611758565b60405180910390f35b6102df610827565b6040516102ec9190611758565b60405180910390f35b61030f600480360381019061030a9190611798565b610836565b005b61032b60048036038101906103269190611798565b6108dc565b005b610335610bad565b005b610351600480360381019061034c9190611798565b610baf565b60405161035e9190611758565b60405180910390f35b61036f610cde565b60405161037c919061188d565b60405180910390f35b61039f600480360381019061039a9190611798565b610d69565b6040516103ac9190611758565b60405180910390f35b6103cf60048036038101906103ca91906118ad565b610e98565b005b6103d961105a565b6040516103e6919061166f565b60405180910390f35b610409600480360381019061040491906118d8565b611081565b005b610425600480360381019061042091906118d8565b611099565b005b610441600480360381019061043c91906118ad565b6110b1565b005b61045d60048036038101906104589190611635565b611103565b60405161046a9190611758565b60405180910390f35b5f60015f8373ffffffffffffffffffffffffffffffffffffffff1673ffffffffffffffffffffffffffffffffffffffff1681526020019081526020015f205f9054906101000a900473ffffffffffffffffffffffffffffffffffffffff169050919050565b565b805f8103610514576040517fcb1d3f7d00000000000000000000000000000000000000000000000000000000815260040160405180910390fd5b60025f5403610558576040517f08c379a000000000000000000000000000000000000000000000000000000000815260040161054f90611982565b60405180910390fd5b60025f819055505f61056984611114565b9050670de0b6b3a764000081106105ac576040517f32c072f000000000000000000000000000000000000000000000000000000000815260040160405180910390fd5b5f6105b78685610baf565b90505f6064600a836105c991906119cd565b6105d39190611a3b565b90505f81836105e29190611a6b565b90506105f087338a84611137565b6105fb8688336112fd565b5f61060588611114565b9050848111610640576040517f7c28362000000000000000000000000000000000000000000000000000000000815260040160405180910390fd5b610649336114b3565b505050505060015f8190555050505050565b5f60025f8473ffffffffffffffffffffffffffffffffffffffff1673ffffffffffffffffffffffffffffffffffffffff1681526020019081526020015f205f8373ffffffffffffffffffffffffffffffffffffffff1673ffffffffffffffffffffffffffffffffffffffff1681526020019081526020015f2054905092915050565b5f6032905090565b5f600a905090565b5f6064905090565b5f5f61070083611510565b8092508193505050915091565b5f5f60048054905090505f5f90505b81811015610805575f6004828154811061073957610738611a9e565b5b905f5260205f20015f9054906101000a900473ffffffffffffffffffffffffffffffffffffffff1690505f60025f8773ffffffffffffffffffffffffffffffffffffffff1673ffffffffffffffffffffffffffffffffffffffff1681526020019081526020015f205f8373ffffffffffffffffffffffffffffffffffffffff1673ffffffffffffffffffffffffffffffffffffffff1681526020019081526020015f205490506107e98282610d69565b856107f49190611a6b565b94505050808060010191505061071c565b5050919050565b5f670de0b6b3a7640000905090565b5f6402540be400905090565b5f670de0b6b3a7640000905090565b805f8103610870576040517fcb1d3f7d00000000000000000000000000000000000000000000000000000000815260040160405180910390fd5b60025f54036108b4576040517f08c379a00000000000000000000000000000000000000000000000000000000081526004016108ab90611982565b60405180910390fd5b60025f819055506108c733338585611137565b6108d0336114b3565b60015f81905550505050565b805f8103610916576040517fcb1d3f7d00000000000000000000000000000000000000000000000000000000815260040160405180910390fd5b825f73ffffffffffffffffffffffffffffffffffffffff1660015f8373ffffffffffffffffffffffffffffffffffffffff1673ffffffffffffffffffffffffffffffffffffffff1681526020019081526020015f205f9054906101000a900473ffffffffffffffffffffffffffffffffffffffff1673ffffffffffffffffffffffffffffffffffffffff16036109d8576040517fa802cfbe00000000000000000000000000000000000000000000000000000000815260040160405180910390fd5b60025f5403610a1c576040517f08c379a0000000000000000000000000000000000000000000000000000000008152600401610a1390611982565b60405180910390fd5b60025f819055508260025f3373ffffffffffffffffffffffffffffffffffffffff1673ffffffffffffffffffffffffffffffffffffffff1681526020019081526020015f205f8673ffffffffffffffffffffffffffffffffffffffff1673ffffffffffffffffffffffffffffffffffffffff1681526020019081526020015f205f828254610aaa9190611a6b565b925050819055508373ffffffffffffffffffffffffffffffffffffffff163373ffffffffffffffffffffffffffffffffffffffff167f23bbcaa7e76fa787630988798d121123a98b21ca858cb44b28ace423f9bb5d0685604051610b0e9190611758565b60405180910390a35f8473ffffffffffffffffffffffffffffffffffffffff166323b872dd3330876040518463ffffffff1660e01b8152600401610b5493929190611acb565b6020604051808303815f875af1158015610b70573d5f5f3e3d5ffd5b505050506040513d601f19601f82011682018060405250810190610b949190611b35565b905080610b9f575f5ffd5b5060015f8190555050505050565b565b5f5f60015f8573ffffffffffffffffffffffffffffffffffffffff1673ffffffffffffffffffffffffffffffffffffffff1681526020019081526020015f205f9054906101000a900473ffffffffffffffffffffffffffffffffffffffff1690505f8173ffffffffffffffffffffffffffffffffffffffff1673__$1f06ac8d622ce42796cee98ba1044ce165$__632ba1c96a90916040518263ffffffff1660e01b8152600401610c609190611bbb565b60a060405180830381865af4158015610c7b573d5f5f3e3d5ffd5b505050506040513d601f19601f82011682018060405250810190610c9f9190611c5a565b5050509150506402540be40081610cb691906119cd565b670de0b6b3a764000085610cca91906119cd565b610cd49190611a3b565b9250505092915050565b60606004805480602002602001604051908101604052809291908181526020018280548015610d5f57602002820191905f5260205f20905b815f9054906101000a900473ffffffffffffffffffffffffffffffffffffffff1673ffffffffffffffffffffffffffffffffffffffff1681526020019060010190808311610d16575b5050505050905090565b5f5f60015f8573ffffffffffffffffffffffffffffffffffffffff1673ffffffffffffffffffffffffffffffffffffffff1681526020019081526020015f205f9054906101000a900473ffffffffffffffffffffffffffffffffffffffff1690505f8173ffffffffffffffffffffffffffffffffffffffff1673__$1f06ac8d622ce42796cee98ba1044ce165$__632ba1c96a90916040518263ffffffff1660e01b8152600401610e1a9190611bbb565b60a060405180830381865af4158015610e35573d5f5f3e3d5ffd5b505050506040513d601f19601f82011682018060405250810190610e599190611c5a565b505050915050670de0b6b3a7640000846402540be40083610e7a91906119cd565b610e8491906119cd565b610e8e9190611a3b565b9250505092915050565b805f8103610ed2576040517fcb1d3f7d00000000000000000000000000000000000000000000000000000000815260040160405180910390fd5b60025f5403610f16576040517f08c379a0000000000000000000000000000000000000000000000000000000008152600401610f0d90611982565b60405180910390fd5b60025f819055508160035f3373ffffffffffffffffffffffffffffffffffffffff1673ffffffffffffffffffffffffffffffffffffffff1681526020019081526020015f205f828254610f699190611a6b565b92505081905550610f79336114b3565b5f7f000000000000000000000000000000000000000000000000000000000000000073ffffffffffffffffffffffffffffffffffffffff166340c10f1933856040518363ffffffff1660e01b8152600401610fd5929190611cd1565b6020604051808303815f875af1158015610ff1573d5f5f3e3d5ffd5b505050506040513d601f19601f820116820180604052508101906110159190611b35565b90508061104e576040517f30eb0fc900000000000000000000000000000000000000000000000000000000815260040160405180910390fd5b5060015f819055505050565b5f7f0000000000000000000000000000000000000000000000000000000000000000905090565b61108b83836108dc565b61109481610e98565b505050565b6110a2816110b1565b6110ac8383610836565b505050565b805f81036110eb576040517fcb1d3f7d00000000000000000000000000000000000000000000000000000000815260040160405180910390fd5b6110f68233336112fd565b6110ff336114b3565b5050565b5f61110d82611114565b9050919050565b5f5f5f61112084611510565b9150915061112e8282611562565b92505050919050565b8060025f8673ffffffffffffffffffffffffffffffffffffffff1673ffffffffffffffffffffffffffffffffffffffff1681526020019081526020015f205f8473ffffffffffffffffffffffffffffffffffffffff1673ffffffffffffffffffffffffffffffffffffffff1681526020019081526020015f205f8282546111be9190611cf8565b925050819055508173ffffffffffffffffffffffffffffffffffffffff168373ffffffffffffffffffffffffffffffffffffffff168573ffffffffffffffffffffffffffffffffffffffff167f892671dfa90c91613766adad4f0503f55c6618bc01a91ac4b9e9b0c050599c24846040516112399190611758565b60405180910390a45f8273ffffffffffffffffffffffffffffffffffffffff1663a9059cbb85846040518363ffffffff1660e01b815260040161127d929190611cd1565b6020604051808303815f875af1158015611299573d5f5f3e3d5ffd5b505050506040513d601f19601f820116820180604052508101906112bd9190611b35565b9050806112f6576040517f4dc34d1700000000000000000000000000000000000000000000000000000000815260040160405180910390fd5b5050505050565b8260035f8473ffffffffffffffffffffffffffffffffffffffff1673ffffffffffffffffffffffffffffffffffffffff1681526020019081526020015f205f8282546113499190611cf8565b925050819055505f7f000000000000000000000000000000000000000000000000000000000000000073ffffffffffffffffffffffffffffffffffffffff166323b872dd8330876040518463ffffffff1660e01b81526004016113ae93929190611acb565b6020604051808303815f875af11580156113ca573d5f5f3e3d5ffd5b505050506040513d601f19601f820116820180604052508101906113ee9190611b35565b905080611427576040517f4dc34d1700000000000000000000000000000000000000000000000000000000815260040160405180910390fd5b7f000000000000000000000000000000000000000000000000000000000000000073ffffffffffffffffffffffffffffffffffffffff166342966c68856040518263ffffffff1660e01b81526004016114809190611758565b5f604051808303815f87803b158015611497575f5ffd5b505af11580156114a9573d5f5f3e3d5ffd5b5050505050505050565b5f6114bd82611114565b9050670de0b6b3a764000081101561150c57806040517fe580cc610000000000000000000000000000000000000000000000000000000081526004016115039190611758565b60405180910390fd5b5050565b5f5f60035f8473ffffffffffffffffffffffffffffffffffffffff1673ffffffffffffffffffffffffffffffffffffffff1681526020019081526020015f2054915061155b8361070d565b9050915091565b5f5f8303611592577fffffffffffffffffffffffffffffffffffffffffffffffffffffffffffffffff90506115d1565b5f60646032846115a291906119cd565b6115ac9190611a3b565b905083670de0b6b3a7640000826115c391906119cd565b6115cd9190611a3b565b9150505b92915050565b5f5ffd5b5f73ffffffffffffffffffffffffffffffffffffffff82169050919050565b5f611604826115db565b9050919050565b611614816115fa565b811461161e575f5ffd5b50565b5f8135905061162f8161160b565b92915050565b5f6020828403121561164a576116496115d7565b5b5f61165784828501611621565b91505092915050565b611669816115fa565b82525050565b5f6020820190506116825f830184611660565b92915050565b5f819050919050565b61169a81611688565b81146116a4575f5ffd5b50565b5f813590506116b581611691565b92915050565b5f5f5f606084860312156116d2576116d16115d7565b5b5f6116df86828701611621565b93505060206116f086828701611621565b9250506040611701868287016116a7565b9150509250925092565b5f5f60408385031215611721576117206115d7565b5b5f61172e85828601611621565b925050602061173f85828601611621565b9150509250929050565b61175281611688565b82525050565b5f60208201905061176b5f830184611749565b92915050565b5f6040820190506117845f830185611749565b6117916020830184611749565b9392505050565b5f5f604083850312156117ae576117ad6115d7565b5b5f6117bb85828601611621565b92505060206117cc858286016116a7565b9150509250929050565b5f81519050919050565b5f82825260208201905092915050565b5f819050602082019050919050565b611808816115fa565b82525050565b5f61181983836117ff565b60208301905092915050565b5f602082019050919050565b5f61183b826117d6565b61184581856117e0565b9350611850836117f0565b805f5b83811015611880578151611867888261180e565b975061187283611825565b925050600181019050611853565b5085935050505092915050565b5f6020820190508181035f8301526118a58184611831565b905092915050565b5f602082840312156118c2576118c16115d7565b5b5f6118cf848285016116a7565b91505092915050565b5f5f5f606084860312156118ef576118ee6115d7565b5b5f6118fc86828701611621565b935050602061190d868287016116a7565b925050604061191e868287016116a7565b9150509250925092565b5f82825260208201905092915050565b7f5265656e7472616e637947756172643a207265656e7472616e742063616c6c005f82015250565b5f61196c601f83611928565b915061197782611938565b602082019050919050565b5f6020820190508181035f83015261199981611960565b9050919050565b7f4e487b71000000000000000000000000000000000000000000000000000000005f52601160045260245ffd5b5f6119d782611688565b91506119e283611688565b92508282026119f081611688565b91508282048414831517611a0757611a066119a0565b5b5092915050565b7f4e487b71000000000000000000000000000000000000000000000000000000005f52601260045260245ffd5b5f611a4582611688565b9150611a5083611688565b925082611a6057611a5f611a0e565b5b828204905092915050565b5f611a7582611688565b9150611a8083611688565b9250828201905080821115611a9857611a976119a0565b5b92915050565b7f4e487b71000000000000000000000000000000000000000000000000000000005f52603260045260245ffd5b5f606082019050611ade5f830186611660565b611aeb6020830185611660565b611af86040830184611749565b949350505050565b5f8115159050919050565b611b1481611b00565b8114611b1e575f5ffd5b50565b5f81519050611b2f81611b0b565b92915050565b5f60208284031215611b4a57611b496115d7565b5b5f611b5784828501611b21565b91505092915050565b5f819050919050565b5f611b83611b7e611b79846115db565b611b60565b6115db565b9050919050565b5f611b9482611b69565b9050919050565b5f611ba582611b8a565b9050919050565b611bb581611b9b565b82525050565b5f602082019050611bce5f830184611bac565b92915050565b5f69ffffffffffffffffffff82169050919050565b611bf281611bd4565b8114611bfc575f5ffd5b50565b5f81519050611c0d81611be9565b92915050565b5f819050919050565b611c2581611c13565b8114611c2f575f5ffd5b50565b5f81519050611c4081611c1c565b92915050565b5f81519050611c5481611691565b92915050565b5f5f5f5f5f60a08688031215611c7357611c726115d7565b5b5f611c8088828901611bff565b9550506020611c9188828901611c32565b9450506040611ca288828901611c46565b9350506060611cb388828901611c46565b9250506080611cc488828901611bff565b9150509295509295909350565b5f604082019050611ce45f830185611660565b611cf16020830184611749565b9392505050565b5f611d0282611688565b9150611d0d83611688565b9250828203905081811115611d2557611d246119a0565b5b9291505056fea26469706673582212201b87801e9451670ad2d7b26129b09294d3d55e43288623506ad97a39eca508c964736f6c634300081e0033","linkReferences":{"src/libraries/OracleLib.sol":{"OracleLib":[{"start":4288,"length":20},{"start":4730,"length":20}]}}},"methodIdentifiers":{"burnDsc(uint256)":"f6876608","depositCollateral(address,uint256)":"a5d5db0c","depositCollateralAndMintDsc()":"1e2e15e4","depositCollateralAndMintDsc(address,uint256,uint256)":"e90db8a3","getAccountCollateralValue(address)":"7d1a4450","getAccountInformation(address)":"7be564fc","getAdditionalFeedPrecision()":"8f63d667","getCollateralBalanceOfUser(address,address)":"31e92b83","getCollateralTokenPriceFeed(address)":"1c08adda","getCollateralTokens()":"b58eb63f","getDsc()":"deb8e018","getHealthFactor()":"a5f352b7","getHealthFactor(address)":"fe6bcd7c","getLiquidationBonus()":"59aa9e72","getLiquidationPrecision()":"6c8102c0","getLiquidationThreshold()":"4ae9b8bc","getMinHealthFactor()":"8c1ae6c8","getPrecision()":"9670c0bc","getTokenAmountFromUsd(address,uint256)":"afea2e48","getUsdValue(address,uint256)":"c660d112","liquidate(address,address,uint256)":"26c01303","mintDsc(uint256)":"c9b7c327","redeemCollateral(address,uint256)":"9acd81b3","redeemCollateralForDsc(address,uint256,uint256)":"f419ea9c"},"id":31}