{"abi":[{"type":"constructor","inputs":[{"name":"tokenAddresses","type":"address[]","internalType":"address[]"},{"name":"priceFeedAddresses","type":"address[]","internalType":"address[]"},{"name":"dscAddress","type":"address","internalType":"address"}],"stateMutability":"nonpayable"},{"type":"function","name":"burnDsc","inputs":[],"outputs":[],"stateMutability":"nonpayable"},{"type":"function","name":"depositCollateral","inputs":[{"name":"tokenCollateralAddress","type":"address","internalType":"address"},{"name":"amountCollateral","type":"uint256","internalType":"uint256"}],"outputs":[],"stateMutability":"nonpayable"},{"type":"function","name":"depositCollateralAndMinDsc","inputs":[],"outputs":[],"stateMutability":"nonpayable"},{"type":"function","name":"getAccountCollateralValue","inputs":[{"name":"user","type":"address","internalType":"address"}],"outputs":[{"name":"totalCollateralValueInUsd","type":"uint256","internalType":"uint256"}],"stateMutability":"view"},{"type":"function","name":"getHealthFactor","inputs":[],"outputs":[],"stateMutability":"view"},{"type":"function","name":"getUsdValue","inputs":[{"name":"token","type":"address","internalType":"address"},{"name":"amount","type":"uint256","internalType":"uint256"}],"outputs":[{"name":"","type":"uint256","internalType":"uint256"}],"stateMutability":"view"},{"type":"function","name":"liquidate","inputs":[],"outputs":[],"stateMutability":"nonpayable"},{"type":"function","name":"mintDsc","inputs":[{"name":"amountDscToMint","type":"uint256","internalType":"uint256"}],"outputs":[],"stateMutability":"nonpayable"},{"type":"function","name":"redeemCollateral","inputs":[],"outputs":[],"stateMutability":"nonpayable"},{"type":"function","name":"redeemCollateralForDsc","inputs":[],"outputs":[],"stateMutability":"nonpayable"},{"type":"event","name":"DSCEngine__CollateralDeposited","inputs":[{"name":"user","type":"address","indexed":true,"internalType":"address"},{"name":"token","type":"address","indexed":true,"internalType":"address"},{"name":"amount","type":"uint256","indexed":false,"internalType":"uint256"}],"anonymous":false},{"type":"error","name":"DSCEngine__BreaksHealthFactor","inputs":[{"name":"healthFactor","type":"uint256","internalType":"uint256"}]},{"type":"error","name":"DSCEngine__MintFailed","inputs":[]},{"type":"error","name":"DSCEngine__NeedsMoreThanZero","inputs":[]},{"type":"error","name":"DSCEngine__NotAllowedToken","inputs":[]},{"type":"error","name":"DSCEngine__TokenAddressesAndPriceFeedAddressesMustBeSameLength","inputs":[]},{"type":"error","name":"DSCEngine__TransferFailed","inputs":[]}],"bytecode":{"object":"0x60a060405234801561000f575f5ffd5b506040516112b03803806112b0833981810160405281019061003191906103af565b60015f819055508151835114610073576040517fb5c5c12600000000000000000000000000000000000000000000000000000000815260040160405180910390fd5b5f5f90505b83518110156101b75782818151811061009457610093610437565b5b602002602001015160015f8684815181106100b2576100b1610437565b5b602002602001015173ffffffffffffffffffffffffffffffffffffffff1673ffffffffffffffffffffffffffffffffffffffff1681526020019081526020015f205f6101000a81548173ffffffffffffffffffffffffffffffffffffffff021916908373ffffffffffffffffffffffffffffffffffffffff160217905550600484828151811061014557610144610437565b5b6020026020010151908060018154018082558091505060019003905f5260205f20015f9091909190916101000a81548173ffffffffffffffffffffffffffffffffffffffff021916908373ffffffffffffffffffffffffffffffffffffffff1602179055508080600101915050610078565b508073ffffffffffffffffffffffffffffffffffffffff1660808173ffffffffffffffffffffffffffffffffffffffff1681525050505050610464565b5f604051905090565b5f5ffd5b5f5ffd5b5f5ffd5b5f601f19601f8301169050919050565b7f4e487b71000000000000000000000000000000000000000000000000000000005f52604160045260245ffd5b61024f82610209565b810181811067ffffffffffffffff8211171561026e5761026d610219565b5b80604052505050565b5f6102806101f4565b905061028c8282610246565b919050565b5f67ffffffffffffffff8211156102ab576102aa610219565b5b602082029050602081019050919050565b5f5ffd5b5f73ffffffffffffffffffffffffffffffffffffffff82169050919050565b5f6102e9826102c0565b9050919050565b6102f9816102df565b8114610303575f5ffd5b50565b5f81519050610314816102f0565b92915050565b5f61032c61032784610291565b610277565b9050808382526020820190506020840283018581111561034f5761034e6102bc565b5b835b8181101561037857806103648882610306565b845260208401935050602081019050610351565b5050509392505050565b5f82601f83011261039657610395610205565b5b81516103a684826020860161031a565b91505092915050565b5f5f5f606084860312156103c6576103c56101fd565b5b5f84015167ffffffffffffffff8111156103e3576103e2610201565b5b6103ef86828701610382565b935050602084015167ffffffffffffffff8111156104105761040f610201565b5b61041c86828701610382565b925050604061042d86828701610306565b9150509250925092565b7f4e487b71000000000000000000000000000000000000000000000000000000005f52603260045260245ffd5b608051610e3461047c5f395f6107690152610e345ff3fe608060405234801561000f575f5ffd5b506004361061009c575f3560e01c8063a5f352b711610064578063a5f352b71461010a578063a653447014610114578063c660d1121461011e578063c9b7c3271461014e578063ffde1fba1461016a5761009c565b806328a07025146100a05780634d92f3ee146100aa5780637d1a4450146100b45780639e297554146100e4578063a5d5db0c146100ee575b5f5ffd5b6100a8610174565b005b6100b2610176565b005b6100ce60048036038101906100c991906109a4565b610178565b6040516100db91906109e7565b60405180910390f35b6100ec610272565b005b61010860048036038101906101039190610a2a565b610274565b005b610112610573565b005b61011c610575565b005b61013860048036038101906101339190610a2a565b610577565b60405161014591906109e7565b60405180910390f35b61016860048036038101906101639190610a68565b610685565b005b610172610847565b005b565b565b5f5f5f90505b60048054905081101561026c575f600482815481106101a05761019f610a93565b5b905f5260205f20015f9054906101000a900473ffffffffffffffffffffffffffffffffffffffff1690505f60025f8673ffffffffffffffffffffffffffffffffffffffff1673ffffffffffffffffffffffffffffffffffffffff1681526020019081526020015f205f8373ffffffffffffffffffffffffffffffffffffffff1673ffffffffffffffffffffffffffffffffffffffff1681526020019081526020015f205490506102508282610577565b8461025b9190610aed565b93505050808060010191505061017e565b50919050565b565b805f81036102ae576040517fcb1d3f7d00000000000000000000000000000000000000000000000000000000815260040160405180910390fd5b825f73ffffffffffffffffffffffffffffffffffffffff1660015f8373ffffffffffffffffffffffffffffffffffffffff1673ffffffffffffffffffffffffffffffffffffffff1681526020019081526020015f205f9054906101000a900473ffffffffffffffffffffffffffffffffffffffff1673ffffffffffffffffffffffffffffffffffffffff1603610370576040517fa802cfbe00000000000000000000000000000000000000000000000000000000815260040160405180910390fd5b60025f54036103b4576040517f08c379a00000000000000000000000000000000000000000000000000000000081526004016103ab90610b7a565b60405180910390fd5b60025f819055508260025f3373ffffffffffffffffffffffffffffffffffffffff1673ffffffffffffffffffffffffffffffffffffffff1681526020019081526020015f205f8673ffffffffffffffffffffffffffffffffffffffff1673ffffffffffffffffffffffffffffffffffffffff1681526020019081526020015f205f8282546104429190610aed565b925050819055508373ffffffffffffffffffffffffffffffffffffffff163373ffffffffffffffffffffffffffffffffffffffff167f23bbcaa7e76fa787630988798d121123a98b21ca858cb44b28ace423f9bb5d06856040516104a691906109e7565b60405180910390a35f8473ffffffffffffffffffffffffffffffffffffffff166323b872dd3330876040518463ffffffff1660e01b81526004016104ec93929190610ba7565b6020604051808303815f875af1158015610508573d5f5f3e3d5ffd5b505050506040513d601f19601f8201168201806040525081019061052c9190610c11565b905080610565576040517f4dc34d1700000000000000000000000000000000000000000000000000000000815260040160405180910390fd5b5060015f8190555050505050565b565b565b5f5f60015f8573ffffffffffffffffffffffffffffffffffffffff1673ffffffffffffffffffffffffffffffffffffffff1681526020019081526020015f205f9054906101000a900473ffffffffffffffffffffffffffffffffffffffff1690505f8173ffffffffffffffffffffffffffffffffffffffff1663feaf968c6040518163ffffffff1660e01b815260040160a060405180830381865afa158015610622573d5f5f3e3d5ffd5b505050506040513d601f19601f820116820180604052508101906106469190610cc2565b505050915050670de0b6b3a7640000846402540be400836106679190610d39565b6106719190610d39565b61067b9190610da7565b9250505092915050565b805f81036106bf576040517fcb1d3f7d00000000000000000000000000000000000000000000000000000000815260040160405180910390fd5b60025f5403610703576040517f08c379a00000000000000000000000000000000000000000000000000000000081526004016106fa90610b7a565b60405180910390fd5b60025f819055508160035f3373ffffffffffffffffffffffffffffffffffffffff1673ffffffffffffffffffffffffffffffffffffffff1681526020019081526020015f205f8282546107569190610aed565b9250508190555061076633610849565b5f7f000000000000000000000000000000000000000000000000000000000000000073ffffffffffffffffffffffffffffffffffffffff166340c10f1933856040518363ffffffff1660e01b81526004016107c2929190610dd7565b6020604051808303815f875af11580156107de573d5f5f3e3d5ffd5b505050506040513d601f19601f820116820180604052508101906108029190610c11565b90508061083b576040517f30eb0fc900000000000000000000000000000000000000000000000000000000815260040160405180910390fd5b5060015f819055505050565b565b5f6108538261089f565b9050600181101561089b57806040517fe580cc6100000000000000000000000000000000000000000000000000000000815260040161089291906109e7565b60405180910390fd5b5050565b5f5f5f6108ab846108f4565b915091505f60646032836108bf9190610d39565b6108c99190610da7565b905082670de0b6b3a7640000826108e09190610d39565b6108ea9190610da7565b9350505050919050565b5f5f60035f8473ffffffffffffffffffffffffffffffffffffffff1673ffffffffffffffffffffffffffffffffffffffff1681526020019081526020015f2054915061093f83610178565b9050915091565b5f5ffd5b5f73ffffffffffffffffffffffffffffffffffffffff82169050919050565b5f6109738261094a565b9050919050565b61098381610969565b811461098d575f5ffd5b50565b5f8135905061099e8161097a565b92915050565b5f602082840312156109b9576109b8610946565b5b5f6109c684828501610990565b91505092915050565b5f819050919050565b6109e1816109cf565b82525050565b5f6020820190506109fa5f8301846109d8565b92915050565b610a09816109cf565b8114610a13575f5ffd5b50565b5f81359050610a2481610a00565b92915050565b5f5f60408385031215610a4057610a3f610946565b5b5f610a4d85828601610990565b9250506020610a5e85828601610a16565b9150509250929050565b5f60208284031215610a7d57610a7c610946565b5b5f610a8a84828501610a16565b91505092915050565b7f4e487b71000000000000000000000000000000000000000000000000000000005f52603260045260245ffd5b7f4e487b71000000000000000000000000000000000000000000000000000000005f52601160045260245ffd5b5f610af7826109cf565b9150610b02836109cf565b9250828201905080821115610b1a57610b19610ac0565b5b92915050565b5f82825260208201905092915050565b7f5265656e7472616e637947756172643a207265656e7472616e742063616c6c005f82015250565b5f610b64601f83610b20565b9150610b6f82610b30565b602082019050919050565b5f6020820190508181035f830152610b9181610b58565b9050919050565b610ba181610969565b82525050565b5f606082019050610bba5f830186610b98565b610bc76020830185610b98565b610bd460408301846109d8565b949350505050565b5f8115159050919050565b610bf081610bdc565b8114610bfa575f5ffd5b50565b5f81519050610c0b81610be7565b92915050565b5f60208284031215610c2657610c25610946565b5b5f610c3384828501610bfd565b91505092915050565b5f69ffffffffffffffffffff82169050919050565b610c5a81610c3c565b8114610c64575f5ffd5b50565b5f81519050610c7581610c51565b92915050565b5f819050919050565b610c8d81610c7b565b8114610c97575f5ffd5b50565b5f81519050610ca881610c84565b92915050565b5f81519050610cbc81610a00565b92915050565b5f5f5f5f5f60a08688031215610cdb57610cda610946565b5b5f610ce888828901610c67565b9550506020610cf988828901610c9a565b9450506040610d0a88828901610cae565b9350506060610d1b88828901610cae565b9250506080610d2c88828901610c67565b9150509295509295909350565b5f610d43826109cf565b9150610d4e836109cf565b9250828202610d5c816109cf565b91508282048414831517610d7357610d72610ac0565b5b5092915050565b7f4e487b71000000000000000000000000000000000000000000000000000000005f52601260045260245ffd5b5f610db1826109cf565b9150610dbc836109cf565b925082610dcc57610dcb610d7a565b5b828204905092915050565b5f604082019050610dea5f830185610b98565b610df760208301846109d8565b939250505056fea2646970667358221220a5ead0eca1f4829eb48ea137ed2c66c7510dd5439ac9f6513ce0f1a925679de664736f6c634300081e0033","linkReferences":{}},"methodIdentifiers":{"burnDsc()":"ffde1fba","depositCollateral(address,uint256)":"a5d5db0c","depositCollateralAndMinDsc()":"4d92f3ee","getAccountCollateralValue(address)":"7d1a4450","getHealthFactor()":"a5f352b7","getUsdValue(address,uint256)":"c660d112","liquidate()":"28a07025","mintDsc(uint256)":"c9b7c327","redeemCollateral()":"a6534470","redeemCollateralForDsc()":"9e297554"},"id":31}