{"abi":[{"type":"constructor","inputs":[{"name":"tokenAddresses","type":"address[]","internalType":"address[]"},{"name":"priceFeedAddresses","type":"address[]","internalType":"address[]"},{"name":"dscAddress","type":"address","internalType":"address"}],"stateMutability":"nonpayable"},{"type":"function","name":"burnDsc","inputs":[],"outputs":[],"stateMutability":"nonpayable"},{"type":"function","name":"depositCollateral","inputs":[{"name":"tokenCollateralAddress","type":"address","internalType":"address"},{"name":"amountCollateral","type":"uint256","internalType":"uint256"}],"outputs":[],"stateMutability":"nonpayable"},{"type":"function","name":"depositCollateralAndMinDsc","inputs":[],"outputs":[],"stateMutability":"nonpayable"},{"type":"function","name":"getAccountCollateralValue","inputs":[{"name":"user","type":"address","internalType":"address"}],"outputs":[{"name":"totalCollateralValueInUsd","type":"uint256","internalType":"uint256"}],"stateMutability":"view"},{"type":"function","name":"getHealthFactor","inputs":[],"outputs":[],"stateMutability":"view"},{"type":"function","name":"getUsdValue","inputs":[{"name":"token","type":"address","internalType":"address"},{"name":"amount","type":"uint256","internalType":"uint256"}],"outputs":[{"name":"","type":"uint256","internalType":"uint256"}],"stateMutability":"view"},{"type":"function","name":"liquidate","inputs":[],"outputs":[],"stateMutability":"nonpayable"},{"type":"function","name":"mintDsc","inputs":[{"name":"amountDscToMint","type":"uint256","internalType":"uint256"}],"outputs":[],"stateMutability":"nonpayable"},{"type":"function","name":"redeemCollateral","inputs":[],"outputs":[],"stateMutability":"nonpayable"},{"type":"function","name":"redeemCollateralForDsc","inputs":[],"outputs":[],"stateMutability":"nonpayable"},{"type":"event","name":"DSCEngine__CollateralDeposited","inputs":[{"name":"user","type":"address","indexed":true,"internalType":"address"},{"name":"token","type":"address","indexed":true,"internalType":"address"},{"name":"amount","type":"uint256","indexed":false,"internalType":"uint256"}],"anonymous":false},{"type":"error","name":"DSCEngine__BreaksHealthFactor","inputs":[{"name":"healthFactor","type":"uint256","internalType":"uint256"}]},{"type":"error","name":"DSCEngine__NeedsMoreThanZero","inputs":[]},{"type":"error","name":"DSCEngine__NotAllowedToken","inputs":[]},{"type":"error","name":"DSCEngine__TokenAddressesAndPriceFeedAddressesMustBeSameLength","inputs":[]},{"type":"error","name":"DSCEngine__TransferFailed","inputs":[]}],"bytecode":{"object":"0x60a060405234801561000f575f5ffd5b506040516111b03803806111b0833981810160405281019061003191906103af565b60015f819055508151835114610073576040517fb5c5c12600000000000000000000000000000000000000000000000000000000815260040160405180910390fd5b5f5f90505b83518110156101b75782818151811061009457610093610437565b5b602002602001015160015f8684815181106100b2576100b1610437565b5b602002602001015173ffffffffffffffffffffffffffffffffffffffff1673ffffffffffffffffffffffffffffffffffffffff1681526020019081526020015f205f6101000a81548173ffffffffffffffffffffffffffffffffffffffff021916908373ffffffffffffffffffffffffffffffffffffffff160217905550600484828151811061014557610144610437565b5b6020026020010151908060018154018082558091505060019003905f5260205f20015f9091909190916101000a81548173ffffffffffffffffffffffffffffffffffffffff021916908373ffffffffffffffffffffffffffffffffffffffff1602179055508080600101915050610078565b508073ffffffffffffffffffffffffffffffffffffffff1660808173ffffffffffffffffffffffffffffffffffffffff1681525050505050610464565b5f604051905090565b5f5ffd5b5f5ffd5b5f5ffd5b5f601f19601f8301169050919050565b7f4e487b71000000000000000000000000000000000000000000000000000000005f52604160045260245ffd5b61024f82610209565b810181811067ffffffffffffffff8211171561026e5761026d610219565b5b80604052505050565b5f6102806101f4565b905061028c8282610246565b919050565b5f67ffffffffffffffff8211156102ab576102aa610219565b5b602082029050602081019050919050565b5f5ffd5b5f73ffffffffffffffffffffffffffffffffffffffff82169050919050565b5f6102e9826102c0565b9050919050565b6102f9816102df565b8114610303575f5ffd5b50565b5f81519050610314816102f0565b92915050565b5f61032c61032784610291565b610277565b9050808382526020820190506020840283018581111561034f5761034e6102bc565b5b835b8181101561037857806103648882610306565b845260208401935050602081019050610351565b5050509392505050565b5f82601f83011261039657610395610205565b5b81516103a684826020860161031a565b91505092915050565b5f5f5f606084860312156103c6576103c56101fd565b5b5f84015167ffffffffffffffff8111156103e3576103e2610201565b5b6103ef86828701610382565b935050602084015167ffffffffffffffff8111156104105761040f610201565b5b61041c86828701610382565b925050604061042d86828701610306565b9150509250925092565b7f4e487b71000000000000000000000000000000000000000000000000000000005f52603260045260245ffd5b608051610d376104795f395f5050610d375ff3fe608060405234801561000f575f5ffd5b506004361061009c575f3560e01c8063a5f352b711610064578063a5f352b71461010a578063a653447014610114578063c660d1121461011e578063c9b7c3271461014e578063ffde1fba1461016a5761009c565b806328a07025146100a05780634d92f3ee146100aa5780637d1a4450146100b45780639e297554146100e4578063a5d5db0c146100ee575b5f5ffd5b6100a8610174565b005b6100b2610176565b005b6100ce60048036038101906100c991906108ce565b610178565b6040516100db9190610911565b60405180910390f35b6100ec610272565b005b61010860048036038101906101039190610954565b610274565b005b610112610573565b005b61011c610575565b005b61013860048036038101906101339190610954565b610577565b6040516101459190610911565b60405180910390f35b61016860048036038101906101639190610992565b610685565b005b610172610771565b005b565b565b5f5f5f90505b60048054905081101561026c575f600482815481106101a05761019f6109bd565b5b905f5260205f20015f9054906101000a900473ffffffffffffffffffffffffffffffffffffffff1690505f60025f8673ffffffffffffffffffffffffffffffffffffffff1673ffffffffffffffffffffffffffffffffffffffff1681526020019081526020015f205f8373ffffffffffffffffffffffffffffffffffffffff1673ffffffffffffffffffffffffffffffffffffffff1681526020019081526020015f205490506102508282610577565b8461025b9190610a17565b93505050808060010191505061017e565b50919050565b565b805f81036102ae576040517fcb1d3f7d00000000000000000000000000000000000000000000000000000000815260040160405180910390fd5b825f73ffffffffffffffffffffffffffffffffffffffff1660015f8373ffffffffffffffffffffffffffffffffffffffff1673ffffffffffffffffffffffffffffffffffffffff1681526020019081526020015f205f9054906101000a900473ffffffffffffffffffffffffffffffffffffffff1673ffffffffffffffffffffffffffffffffffffffff1603610370576040517fa802cfbe00000000000000000000000000000000000000000000000000000000815260040160405180910390fd5b60025f54036103b4576040517f08c379a00000000000000000000000000000000000000000000000000000000081526004016103ab90610aa4565b60405180910390fd5b60025f819055508260025f3373ffffffffffffffffffffffffffffffffffffffff1673ffffffffffffffffffffffffffffffffffffffff1681526020019081526020015f205f8673ffffffffffffffffffffffffffffffffffffffff1673ffffffffffffffffffffffffffffffffffffffff1681526020019081526020015f205f8282546104429190610a17565b925050819055508373ffffffffffffffffffffffffffffffffffffffff163373ffffffffffffffffffffffffffffffffffffffff167f23bbcaa7e76fa787630988798d121123a98b21ca858cb44b28ace423f9bb5d06856040516104a69190610911565b60405180910390a35f8473ffffffffffffffffffffffffffffffffffffffff166323b872dd3330876040518463ffffffff1660e01b81526004016104ec93929190610ad1565b6020604051808303815f875af1158015610508573d5f5f3e3d5ffd5b505050506040513d601f19601f8201168201806040525081019061052c9190610b3b565b905080610565576040517f4dc34d1700000000000000000000000000000000000000000000000000000000815260040160405180910390fd5b5060015f8190555050505050565b565b565b5f5f60015f8573ffffffffffffffffffffffffffffffffffffffff1673ffffffffffffffffffffffffffffffffffffffff1681526020019081526020015f205f9054906101000a900473ffffffffffffffffffffffffffffffffffffffff1690505f8173ffffffffffffffffffffffffffffffffffffffff1663feaf968c6040518163ffffffff1660e01b815260040160a060405180830381865afa158015610622573d5f5f3e3d5ffd5b505050506040513d601f19601f820116820180604052508101906106469190610bec565b505050915050670de0b6b3a7640000846402540be400836106679190610c63565b6106719190610c63565b61067b9190610cd1565b9250505092915050565b805f81036106bf576040517fcb1d3f7d00000000000000000000000000000000000000000000000000000000815260040160405180910390fd5b60025f5403610703576040517f08c379a00000000000000000000000000000000000000000000000000000000081526004016106fa90610aa4565b60405180910390fd5b60025f819055508160035f3373ffffffffffffffffffffffffffffffffffffffff1673ffffffffffffffffffffffffffffffffffffffff1681526020019081526020015f205f8282546107569190610a17565b9250508190555061076633610773565b60015f819055505050565b565b5f61077d826107c9565b905060018110156107c557806040517fe580cc610000000000000000000000000000000000000000000000000000000081526004016107bc9190610911565b60405180910390fd5b5050565b5f5f5f6107d58461081e565b915091505f60646032836107e99190610c63565b6107f39190610cd1565b905082670de0b6b3a76400008261080a9190610c63565b6108149190610cd1565b9350505050919050565b5f5f60035f8473ffffffffffffffffffffffffffffffffffffffff1673ffffffffffffffffffffffffffffffffffffffff1681526020019081526020015f2054915061086983610178565b9050915091565b5f5ffd5b5f73ffffffffffffffffffffffffffffffffffffffff82169050919050565b5f61089d82610874565b9050919050565b6108ad81610893565b81146108b7575f5ffd5b50565b5f813590506108c8816108a4565b92915050565b5f602082840312156108e3576108e2610870565b5b5f6108f0848285016108ba565b91505092915050565b5f819050919050565b61090b816108f9565b82525050565b5f6020820190506109245f830184610902565b92915050565b610933816108f9565b811461093d575f5ffd5b50565b5f8135905061094e8161092a565b92915050565b5f5f6040838503121561096a57610969610870565b5b5f610977858286016108ba565b925050602061098885828601610940565b9150509250929050565b5f602082840312156109a7576109a6610870565b5b5f6109b484828501610940565b91505092915050565b7f4e487b71000000000000000000000000000000000000000000000000000000005f52603260045260245ffd5b7f4e487b71000000000000000000000000000000000000000000000000000000005f52601160045260245ffd5b5f610a21826108f9565b9150610a2c836108f9565b9250828201905080821115610a4457610a436109ea565b5b92915050565b5f82825260208201905092915050565b7f5265656e7472616e637947756172643a207265656e7472616e742063616c6c005f82015250565b5f610a8e601f83610a4a565b9150610a9982610a5a565b602082019050919050565b5f6020820190508181035f830152610abb81610a82565b9050919050565b610acb81610893565b82525050565b5f606082019050610ae45f830186610ac2565b610af16020830185610ac2565b610afe6040830184610902565b949350505050565b5f8115159050919050565b610b1a81610b06565b8114610b24575f5ffd5b50565b5f81519050610b3581610b11565b92915050565b5f60208284031215610b5057610b4f610870565b5b5f610b5d84828501610b27565b91505092915050565b5f69ffffffffffffffffffff82169050919050565b610b8481610b66565b8114610b8e575f5ffd5b50565b5f81519050610b9f81610b7b565b92915050565b5f819050919050565b610bb781610ba5565b8114610bc1575f5ffd5b50565b5f81519050610bd281610bae565b92915050565b5f81519050610be68161092a565b92915050565b5f5f5f5f5f60a08688031215610c0557610c04610870565b5b5f610c1288828901610b91565b9550506020610c2388828901610bc4565b9450506040610c3488828901610bd8565b9350506060610c4588828901610bd8565b9250506080610c5688828901610b91565b9150509295509295909350565b5f610c6d826108f9565b9150610c78836108f9565b9250828202610c86816108f9565b91508282048414831517610c9d57610c9c6109ea565b5b5092915050565b7f4e487b71000000000000000000000000000000000000000000000000000000005f52601260045260245ffd5b5f610cdb826108f9565b9150610ce6836108f9565b925082610cf657610cf5610ca4565b5b82820490509291505056fea2646970667358221220630d1a79d234e502cfaba6d82d2158d9de3c4743267793ceb323bd1efc5d6fd164736f6c634300081e0033","linkReferences":{}},"methodIdentifiers":{"burnDsc()":"ffde1fba","depositCollateral(address,uint256)":"a5d5db0c","depositCollateralAndMinDsc()":"4d92f3ee","getAccountCollateralValue(address)":"7d1a4450","getHealthFactor()":"a5f352b7","getUsdValue(address,uint256)":"c660d112","liquidate()":"28a07025","mintDsc(uint256)":"c9b7c327","redeemCollateral()":"a6534470","redeemCollateralForDsc()":"9e297554"},"id":8}