{"abi":[{"type":"function","name":"staleCheckLatestRoundData","inputs":[{"name":"pricefeed","type":"AggregatorV3Interface","internalType":"contract AggregatorV3Interface"}],"outputs":[{"name":"","type":"uint80","internalType":"uint80"},{"name":"","type":"int256","internalType":"int256"},{"name":"","type":"uint256","internalType":"uint256"},{"name":"","type":"uint256","internalType":"uint256"},{"name":"","type":"uint80","internalType":"uint80"}],"stateMutability":"view"},{"type":"error","name":"OracleLib__StalePrice","inputs":[]}],"bytecode":{"object":"0x61042061004d600b8282823980515f1a6073146041577f4e487b71000000000000000000000000000000000000000000000000000000005f525f60045260245ffd5b305f52607381538281f3fe7300000000000000000000000000000000000000003014608060405260043610610034575f3560e01c80632ba1c96a14610038575b5f5ffd5b610052600480360381019061004d91906101c5565b61006c565b604051610063959493929190610244565b60405180910390f35b5f5f5f5f5f5f5f5f5f5f8a73ffffffffffffffffffffffffffffffffffffffff1663feaf968c6040518163ffffffff1660e01b815260040160a060405180830381865afa1580156100bf573d5f5f3e3d5ffd5b505050506040513d601f19601f820116820180604052508101906100e39190610313565b945094509450945094505f82426100fa91906103b7565b9050612a30811115610138576040517fc4a1093a00000000000000000000000000000000000000000000000000000000815260040160405180910390fd5b85858585859a509a509a509a509a5050505050505091939590929450565b5f5ffd5b5f73ffffffffffffffffffffffffffffffffffffffff82169050919050565b5f6101838261015a565b9050919050565b5f61019482610179565b9050919050565b6101a48161018a565b81146101ae575f5ffd5b50565b5f813590506101bf8161019b565b92915050565b5f602082840312156101da576101d9610156565b5b5f6101e7848285016101b1565b91505092915050565b5f69ffffffffffffffffffff82169050919050565b61020e816101f0565b82525050565b5f819050919050565b61022681610214565b82525050565b5f819050919050565b61023e8161022c565b82525050565b5f60a0820190506102575f830188610205565b610264602083018761021d565b6102716040830186610235565b61027e6060830185610235565b61028b6080830184610205565b9695505050505050565b61029e816101f0565b81146102a8575f5ffd5b50565b5f815190506102b981610295565b92915050565b6102c881610214565b81146102d2575f5ffd5b50565b5f815190506102e3816102bf565b92915050565b6102f28161022c565b81146102fc575f5ffd5b50565b5f8151905061030d816102e9565b92915050565b5f5f5f5f5f60a0868803121561032c5761032b610156565b5b5f610339888289016102ab565b955050602061034a888289016102d5565b945050604061035b888289016102ff565b935050606061036c888289016102ff565b925050608061037d888289016102ab565b9150509295509295909350565b7f4e487b71000000000000000000000000000000000000000000000000000000005f52601160045260245ffd5b5f6103c18261022c565b91506103cc8361022c565b92508282039050818111156103e4576103e361038a565b5b9291505056fea2646970667358221220b6b3e389225c5c016bc97c41be69a92004e717889c6b7e8c4d059657b47309b064736f6c634300081e0033","linkReferences":{}},"methodIdentifiers":{"staleCheckLatestRoundData(AggregatorV3Interface)":"2ba1c96a"},"id":33}